:100000000C94BC050C9403060C9403060C94030694
:100010000C9403060C9403060C9403060C9403063C
:100020000C9403060C9403060C94C91A0C949B1BA5
:100030000C94FF280C9403060C9403060C940306FE
:100040000C9403060C9463060C9403060C940306AC
:100050000C9403060C9467290C9403060C94030675
:100060000C9403060C9403060C9403060C940306EC
:100070000C9403060C9403060C9403060C940306DC
:100080000C94AC100C9403060C9403060C94030619
:100090000C9403060C9403060C9403060C940306BC
:1000A0000C9403060C9403060C940306CB06DD06A1
:1000B000F106030712071C07700770077007700727
:1000C000700770072A075A076C07081C2A1C181D9E
:1000D0002A1C181D6F1C921C181DE71CFA1CE41F1B
:1000E000E41F1320132052207220C821C8217D2034
:1000F000C8212D212D2194219D21C821C2213A21E1
:100100003A213A213A213A213A213A213A213A2117
:100110003A213A213A213A213A213A213A214A21F7
:1001200058215F216621702107634236B79BD8A70B
:100130001A39685618AEBAAB558C1D3CB7CC57630C
:10014000BD6DEDFD753EF6177231BF000000803FBA
:1001500008000000BE922449123EABAAAA2ABECDD6
:10016000CCCC4C3E00000080BEABAAAAAA3E000048
:100170000000BF000000803F000000000008417840
:10018000D3BB4387D1133D190E3CC3BD4282AD2B77
:100190003E68EC8276BED98FE1A93E4C80EFFFBE6F
:1001A00001C4FF7F3F0000000000000000000000CD
:1001B0000000000000010204060A0F17202C3A4A32
:1001C0005D71879DB3C7DAE9F5FCFFFCF5E9DAC795
:1001D000B39D87715D4A3A2C20170F0A060402016D
:1001E00000000000000000000000616D0054686124
:1001F0006E6B20596F7500706C616E636B2F62615E
:100200006C74696D6F72652040207072656F6E69E5
:10021000632D312E302D3231382D6734346530392D
:10022000382D6469727479000108011501090119FA
:100230000112010F02080215020902190212020F2F
:10024000002B0014001A000800150017001C0018ED
:10025000000C00120013002A00E000040016000742
:100260000009000A000B000D000E000F00330028EB
:100270000033701D001B000600190005001100105E
:1002800000360037003800E50029451470E200E32D
:100290000003302C002C000430000F9E00000000F2
:1002A000002B0014001A00090013000A000D000FB3
:1002B0000018001C0033002A002900040015001655
:1002C00000170007000B00110008000C001200349A
:1002D00000E1001D001B000600190005000E0010C3
:1002E0000036003700380028000530E000E200E367
:1002F0000003302C002C0004305000510052004FFD
:10030000002B0034003600370013001C0009000ADF
:1003100000060015000F002A00E00004001200088B
:100320000018000C0007000B001700110016002831
:10033000003370330014000D000E001B0005001088
:10034000001A0019001D00347029451470E200E302
:100350000003302C002C000430000F9E0000000031
:100360000035021E021F0220022102220223022463
:10037000022502260227024C0001003A003B003C05
:10038000003D003E003F002D022E022F02300231C0
:100390000201004000410042004300440045003299
:1003A0000264023800310001000100010001000177
:1003B000000100010001000100AB00AA00A900AE8D
:1003C0000035001E001F0020002100220023002411
:1003D000002500260027004C00010001000100015B
:1003E000000100010001002D002E002F003000311F
:1003F00000010001000100010001000100010032C4
:100400000064000100010001000100010001000181
:10041000000100010001000100AB00AA00A900AE2C
:1004200000010000001A000000F400F000F50000D8
:10043000000000000000000000010004001600079A
:1004400000F200F600F3000B000D000E000F00009C
:10045000000100000000000000F700F100F80000BB
:10046000000000520000000E3001000100010001F8
:100470000001002C002C000100500051004F000D25
:1004800030000000001A0000000000000000000022
:10049000000000000000000000000004001600073B
:1004A000000000000000000000000000000000004C
:1004B000000E3000000000000000000000000000FE
:1004C0000000000000000000000D300100000000EE
:1004D0000001002C002C00010000000000000000C2
:1004E000000000000000000000000000000000000C
:1004F00000000000000000000000000000000000FC
:1005000000000000000000000000000000000000EB
:1005100000000000000000000000000000000000DB
:100840000001000070010001000100010001000131
:10085000000100010001000100010001000100157C
:1008600070167013700A70003001000230053001FC
:100870000001001C701B70187019701D701E700133
:100880000001000100010001000100010001000160
:10089000000100010001000100010001000100054C
:1008A0003000000000000000002A2B28000000009B
:1008B000000000000000000000000000290000000F
:1008C000002C1E3420212224342627252E362D37B5
:1008D00038271E1F202122232425263333362E3786
:1008E000381F0405060708090A0B0C0D0E0F10111E
:1008F00012131415161718191A1B1C1D2F3130232B
:100900002D350405060708090A0B0C0D0E0F1011F2
:1009100012131415161718191A1B1C1D2F313035F8
:100920004C0000000000000000000000000000007B
:1009300000000000000000000000000000000000B7
:10094000000001010101010100010101010000009D
:100950000000000000000000000000010001000194
:100960000101010101010101010101010101010177
:10097000010101010101010101010101000000016A
:100980000100000000000000000000000000000066
:100990000000000000000000000000000101010153
:1009A000002803540068006500200050006C0061BE
:1009B000006E0063006B0020004B00650079006250
:1009C000006F0061007200640000002C034F007291
:1009D00000740068006F006C0069006E00650061C3
:1009E00000720020004B006500790062006F00611A
:1009F0000072006400730000000403090409026D22
:100A000000040100A0FA090400000103010100092B
:100A100021110100012240000705810308000A0995
:100A20000401000103010200092111010001224D0E
:100A3000000705820308000A090402000103000000
:100A40000009211101000122360007058303080077
:100A50000A0904030001030000000921110100013B
:100A60002239000705840310000112011001000063
:100A70000008EDFE606001000102000105010906A9
:100A8000A101050719E029E7150025019508750161
:100A90008102050819012905950575019102950145
:100AA000750391010507190029771500250195782F
:100AB00075018102C005010980A1018502160100AE
:100AC00026B7001A01002AB700751095018100C0F1
:100AD000050C0901A1018503160100269C021A01DB
:100AE000002A9C02751095018100C005010902A130
:100AF000010901A100050919012905150025019524
:100B0000057501810295017503810105010930090F
:100B1000311581257F9502750881060938158125D3
:100B20007F950175088106050C0A38021581257F1D
:100B3000950175088106C0C005010906A1010507D8
:100B400019E029E715002501950875018102950135
:100B5000750881010508190129059505750191029E
:100B60009501750391010507190029FF150026FF5E
:100B700000950675088100C011241FBECFEFDAE092
:100B8000DEBFCDBF04B603FE27C080918F049091D5
:100B90009004A0919104B09192048730904BA740AB
:100BA000B04BD1F410928F041092900410929104E3
:100BB0001092920414BE84B7877F84BF0FB6F89456
:100BC000A895809160008861809360001092600019
:100BD0000FBEE0E0F8E3099513E0A0E0B1E0E8EF34
:100BE000F6E602C005900D92A033B107D9F714E0E4
:100BF000A0E3B3E001C01D92AF38B107E1F70E9456
:100C000010180C947A330C94000081E00895089534
:100C10000C9478070C9405060C9407060E94FC2E91
:100C200023E030E0281B3109220F2093340308957C
:100C3000282F2F9880918000211108C0877F8093F2
:100C4000800010928D0010928C001BC088608093F1
:100C50008000233019F48FEF9FEF0FC083E090E006
:100C6000821B9109880F991F2FEF3FEFA90102C046
:100C7000569547958A95E2F7CA0190938D00809327
:100C80008C000C940E060E940E0684E080933303C1
:100C9000109230030895279A2F988FEF9FEF90932B
:100CA0008700809386008AE08093800089E18093AA
:100CB00081000E94652E0C9443060E944B066E9A9A
:100CC000769A0C9476081F920F920FB60F92112409
:100CD0002F933F938F939F93EF93FF93E091310373
:100CE000F0913203CF010196909332038093310348
:100CF0000090330302C0F695E7950A94E2F7EF738C
:100D000080913003823019F4E03251F404C0813014
:100D100039F4EF3329F480916F008D7F80936F0059
:100D2000F0E0E655FE4FE49121E031E0E29FC001A2
:100D3000E39F900D11240090340302C0969587958F
:100D40000A94E2F790938D0080938C00FF91EF91CD
:100D50009F918F913F912F910F900FBE0F901F90F9
:100D60001895CF93DF93EC010E94032ABE0180E027
:100D700090E0DF91CF910C94F3250F931F93462FB2
:100D800050E04F30510508F0ABC0DC01FA01EA5ADF
:100D9000FF4F0C943F3312968C91882309F4A0C026
:100DA00000E010E0980140E064E070E088E292E04A
:100DB0000E942A1481E090E011C012968C91882341
:100DC00009F48EC000E010E0980140E066E070E0B9
:100DD00088EB91E00E942A1482E090E00E94B10624
:100DE0007FC012968C91882309F47AC000E010E04D
:100DF000980140E068E070E088EE91E00E942A14DB
:100E000084E090E0EBCF12968C91882311F083E080
:100E10000EC083E00E94912640E164E083E00E94DE
:100E2000D3085EC012968C91882321F084E00E9442
:100E30007026F2CF84E0EECF12968C91882331F0A9
:100E400085EE0E94881E0E94BC2E4AC085EE0E943C
:100E5000501F46C012968C91882309F441C00E940D
:100E6000DF0F00E010E0980140E066E070E088E805
:100E700091E00E942A1484E00E94912683E00E945F
:100E8000912680E10E94912685E00E9470260E94B2
:100E9000F029811102C00E94CC290E94082A90E00A
:100EA00090937404809373048068809373040E9409
:100EB0000C2A16C012968C91882391F000E010E065
:100EC000980140E066E070E088E591E00E942A1415
:100ED00085E00E94912604C012968C91811103C076
:100EE00080E090E002C088E292E01F910F910895A7
:100EF00080914003882309F4E0C080913E039091E3
:100F00003F030E943D29893E934008F4D6C01092C9
:100F100040030E94A70880913803909139034997B4
:100F200081F480913A0390913B03892B51F4809195
:100F30003C0390913D03892B21F487EF91E00E94BF
:100F4000A8088091380390913903479781F48091E4
:100F50003A0390913B03892B51F480913C0390918B
:100F60003D03892B21F48DEE91E00E94A808809129
:100F70003803909139030497C1F480913A0390911A
:100F80003B03892B91F480913C0390913D03892B85
:100F900061F481EE0E94881E84E00E94881E84E035
:100FA0000E94501F81EE0E94501F80913803909143
:100FB0003903409751F580913A0390913B03892B77
:100FC00021F580913C0390913D03892BF1F484E05D
:100FD0000E94881E84E00E94501F8FE10E94881E9C
:100FE0008FE10E94501F80E20E94881E80E20E94D2
:100FF000501F81E20E94881E81E20E94501F82E2FF
:101000000E94881E82E20E94501F809138039091B6
:101010003903049781F480913A0390913B0304973C
:1010200051F480913C0390913D03892B21F48AEE89
:1010300091E00E94A80880913803909139030597A8
:10104000F1F480913A0390913B030F97C1F48091A2
:101050003C0390913D03892B91F480EE0E949F1FE9
:1010600085E00E94881E85E00E94501F80EE0E944D
:10107000A61F80E50E94881E80E50E94501F809177
:101080003803909139034697C1F480913A039091C7
:101090003B03079791F480913C0390913D0309979E
:1010A00061F483EE0E94881E86E10E94881E86E11C
:1010B0000E94501F83EE0C94501F08950F931F93AE
:1010C0002FEF89EF90E0215080409040E1F700C081
:1010D000000000E010E0980140E065E070E088E486
:1010E00092E00E942A141F910F9108950C945E08BB
:1010F0000F931F9300E010E0980140E063E070E080
:1011000080E091E00E942A142FEF82E597E02150C1
:1011100080409040E1F700C000001F910F910C94B7
:10112000DF0F0F931F9300E010E0980140E068E0AC
:1011300070E088E191E00E942A141F910F910895B8
:101140000C94910881E008950C94A20808950895E4
:101150000F931F93CF938C01F80124912223F9F070
:1011600030E0F901EF55F74FC491F901EF5DF64F0B
:101170002491222359F081EE0E94881E8C2F0E9418
:10118000881E8C2F0E94501F81EE04C08C2F0E945D
:10119000881E8C2F0E94501F0F5F1F4FDDCFCF91F5
:1011A0001F910F910895CF92DF92EF92FF920F93CC
:1011B0001F9301E010E020E030E06801790104C0F5
:1011C000CC0CDD1CEE1CFF1C8A95D2F704C0000F6E
:1011D000111F221F331F6A95D2F70C291D292E29B2
:1011E0003F29C0904504D0904604E0904704F09019
:1011F0004804C022D122E222F322842FC016D10655
:10120000E206F30641F41F910F91FF90EF90DF90FB
:10121000CF900C9470261F910F91FF90EF90DF906C
:10122000CF900C9491260C945D06809185038823C1
:1012300009F448C08091410390914203009779F4EA
:101240000E9431299093420380934103809143038C
:1012500090E0009771F48091440390E00AC00E94EE
:101260003D2920917002309171022817390740F30F
:1012700029C00197880F991F880F991FFC01EB5B0C
:10128000FC4F60817181828193810E941210E091F4
:10129000430384E0E89FF0011124EB5BFC4F608185
:1012A0007181828193814FE050E00E94CA13809146
:1012B000430390E001966091440370E00E942B3359
:1012C000809343030C940806109287030C94DF0F5D
:1012D00081E0809387030C94A00808958F929F92D9
:1012E000AF92BF92EF92FF920F931F93CF93DF9332
:1012F000CDB7DEB7A3970FB6F894DEBF0FBECDBF54
:101300007C01FC0100811181C8010E942C27B801D9
:101310000E94020E8C01B7010E94A408882309F4E0
:10132000BDC20531F0E71F0741F4F7018281882330
:1013300009F458C00E94C114B1C20631F0E71F077A
:1013400041F4F7018281882309F44CC00E94CA1439
:10135000A5C20731F0E71F0751F4F7018281882306
:1013600009F440C00E94BD148111F0CFE3CF0831D1
:10137000F0E71F0739F4F7018281882399F10E9471
:1013800068098CC20931F0E71F0739F4F70182813F
:10139000882341F10E94640981C20A31F0E71F07E6
:1013A00049F4F70182818823E9F080918703811154
:1013B000F1CFE5CF0B31F0E71F0739F4F701828158
:1013C000882381F00E94D1140AC00C31F0E71F0776
:1013D00049F4F7018281882329F00E94DC140E94DD
:1013E00091085CC280918703811105C0F701828159
:1013F0008111CFC03AC1003E110579F4F701828115
:10140000882309F44DC00E94DF0F81E0809386039A
:10141000109285031092440341C2023E110559F413
:10142000F70182818823E1F10E94DF0F1092860389
:101430001092850333C2033E110591F4F7018281B6
:10144000882371F10E94DF0F1092860381E0809360
:1014500085031092430310924203109241031EC26F
:101460000235110559F4F7018281882309F416C267
:1014700080917002909171020A970DC0013511059B
:1014800079F4F7018281882309F408C280917002FF
:10149000909171020A969093710280937002FEC13E
:1014A0004091740283E2EFE8F2E0DE0111960190D0
:1014B0000D928A95E1F7F701808121E030E02C0F51
:1014C0003D1F280F311DC901209172023091730216
:1014D000FC01E20FF31F6081772767FD7095640FB1
:1014E000711D882777FD8095982F0E941C3020E081
:1014F00030E040E451E40E94722F4B015C01F7019F
:10150000218184E090E0821B9109BC01882777FD4E
:101510008095982F0E941C309B01AC01C501B4013D
:101520000E94012F9B01AC0160E070E080E090E43C
:101530000E94A03120E030E04CED50E40E943331B5
:101540004B015C01F70182818823D1F04FE050E02C
:10155000C501B4010E94CA13809186038823A1F0BB
:101560008091440324E0829FF0011124EB5BFC4F47
:1015700080829182A282B3828F5F8093440304C0F1
:10158000C501B4010E9412100F3F110508F02ECFC3
:1015900085C18091400381111FC0043130E71307DA
:1015A00009F080C00E94A60881E0809340030E9459
:1015B000312990933F0380933E031092370310929A
:1015C00039031092380310923B0310923A031092A1
:1015D0003D0310923C0362C180913E0390913F0312
:1015E0000E943D29883C910570F480913703E82FD3
:1015F000F0E0EE0FFF1FE85CFC4F118300838F5F6C
:10160000809337034BC1043180E7180768F4023038
:1016100090E7190708F050C00115E0E71E0771F0C8
:1016200001301047A1F11CC1033320E7120709F470
:10163000E8C00433104709F4FBC012C1F7018281EE
:10164000882309F412C10E9433220E94DF0F0E94F6
:101650007808FFEF24E33CE0F15020403040E1F710
:1016600000C000000E948C2919C10431F0E71F0757
:1016700008F0C3C0023020E71207F0F4011530E78C
:10168000130709F4F2C00130104709F0E9C0F7016F
:101690008281882309F4E9C080916204816080938B
:1016A0006204FCC00431F0E71F0708F0A6C0023056
:1016B00020E7120708F4ECC0F7018281882309F4BF
:1016C000D4C00E94F029811102C00E94CC290E943E
:1016D000082A90E090937404809373040230F0E73A
:1016E0001F0721F480917304816080C0033020E7DC
:1016F000120721F480917304826078C0043030E7CF
:10170000130721F480917304846070C0053080E772
:10171000180719F48091730427C0063090E7190761
:1017200021F480917304806161C00730E0E71E07F7
:1017300021F480917304806259C00830F0E71F07DC
:1017400021F480917304806451C0093020E71207AE
:1017500021F480917304806849C00A3030E7130790
:1017600029F4809173048460886040C00B3080E766
:10177000180721F4809173048E7F38C00C3090E7F5
:10178000190721F4809173048D7F30C00D30E0E79C
:101790001E0721F4809173048B7F28C00E30F0E780
:1017A0001F0719F48091730420C00F3020E712073F
:1017B00021F4809173048F7E19C0003130E7130744
:1017C00021F4809173048F7D11C0013180E71807E7
:1017D00021F4809173048F7B09C0809173040231DE
:1017E000104711F48F7702C08B7F877F809373043B
:1017F000809173040E940C2A51C0033390E71907AB
:10180000A1F4F7018281882321F01092350382E050
:1018100016C080913503811106C086E20E94881EA1
:1018200086E20E94501F82E018C004331047C1F4C2
:10183000F7018281882331F01092360382E10E9401
:101840009F1F2CC080913603811106C087E20E9441
:10185000881E87E20E94501F82E10E94A61F1EC0C0
:1018600081E08093350380933603C701A3960FB6BA
:10187000F894DEBF0FBECDBFDF91CF911F910F91C6
:10188000FF90EF90BF90AF909F908F900C940A06BE
:10189000011530E7130709F0F6CED5CE80E0A39608
:1018A0000FB6F894DEBF0FBECDBFDF91CF911F9171
:1018B0000F91FF90EF90BF90AF909F908F90089501
:1018C0002CE0729FF001112430E3839FE00DF11DA5
:1018D0001124E60FF11DEE0FFF1FEF5BFD4F859109
:1018E00094910E94140E811540E5940708F047C0BA
:1018F000811520E4920708F013C1883E910520F578
:10190000803E910508F07CC1883A910578F4853ACB
:10191000910508F0A5C08130910509F471C108F462
:101920002EC18430910508F06BC129C18B3B910514
:1019300008F4A1C0803C910508F421C1FC01EE0F20
:10194000FF1FEF53FF4FE6C0811530E2930758F4B5
:10195000811541E0940708F053C1803F910508F4D8
:101960000EC190650895811520E3920708F0D5C057
:10197000FC01FF70EE0FFF1FEF5BFD4FCBC0811529
:1019800035E5930708F043C0811544E5940708F056
:10199000DEC0811522E5920708F5811531E5930730
:1019A00008F0C1C0482F437021E030E002C0220F90
:1019B000331F4A95E2F73C68AC0164E056954795C1
:1019C0006A95E1F74370342B8F708695869540E2D7
:1019D000849FC0011124822B932B0895282F2695D4
:1019E0002695AC01437055278115934508F0A0C09A
:1019F00080E2289F9001112481E090E002C0880FCE
:101A0000991F4A95E2F7822B932B9C6808958F3299
:101A100040E7940790F48F3120E7920708F0A2C0C6
:101A2000811536E5930708F497C09C0130562115BF
:101A3000304108F0A4C09F7093C0803320E7920724
:101A400009F497C008F492C0813340E7940709F481
:101A500093C08233904709F092C080E093ED0895DF
:101A6000853A910509F48EC0863A910509F08DC03A
:101A700082E890E40895883A910509F489C0893A8A
:101A8000910509F488C08A3A910509F487C08B3A18
:101A9000910509F486C08C3A910509F485C08D3A08
:101AA000910509F484C0803B910509F483C08E3A06
:101AB000910509F482C08F3A910509F481C0813BF8
:101AC000910509F480C0823B910509F47FC0833BF6
:101AD000910509F47EC0843B910509F47DC0853BE6
:101AE000910509F47CC0863B910509F47BC0873BD6
:101AF000910509F47AC0883B910509F479C0893BC6
:101B0000910509F478C08A3B910509F477C080E01B
:101B100094E408958591949108959927906C08957F
:101B20009F70906A0895982F8827816F906A089512
:101B300090E2299F9001112481E090E002C0880F7B
:101B4000991F4A95E2F7822B932B9A680895982F54
:101B50008827846F906A08958F719927982F882716
:101B6000906208958F519047946D089580E091EDB3
:101B7000089580E090ED089580E092ED089580E072
:101B800090E0089581E890E4089583E890E4089552
:101B900082EE94E4089589EE94E408958AEE94E444
:101BA000089585EB94E4089586EB94E4089587EB1B
:101BB00094E408958CEC94E408958DEC94E40895F5
:101BC00083E895E408958AE895E4089582E995E428
:101BD000089584E995E4089581E296E4089583E206
:101BE00096E4089584E296E4089585E296E40895E3
:101BF00086E296E4089587E296E408958AE296E400
:101C0000089508959CE0799FF001112490E3899F45
:101C1000E00DF11D1124E60FF11DEE0FFF1FEF5B2C
:101C2000FD4F8591949108958238910549F1B0F462
:101C30008133910509F458C048F48932910509F4BB
:101C40004EC08A32910509F454C008958533910538
:101C500009F440C08933910599F00895833E9105B8
:101C600029F138F4803E910591F0823E9105A1F072
:101C70000895863E9105F9F0873E910531F108956A
:101C80002091730420FD3AC021FD38C00895809151
:101C9000730480FD35C032C08091730482FF32C06E
:101CA0008091730484FD30C083EE39C08091730449
:101CB00082FD28C0F5CF8091730483FF27C08091F7
:101CC000730484FD21C087EE2AC08091730483FDD4
:101CD0001DC0F5CF8091730485FD1AC01BC0809193
:101CE000730485FD17C014C08091730486FD14C071
:101CF00015C08091730486FD11C00EC080EE0FC028
:101D000089E30DC082EE0BC080E009C086EE07C0FB
:101D100089E205C085E303C08AE201C081E390E067
:101D200008950C940C06E82FF0E0E254FD4F8081FA
:101D3000E82FEF70F0E082958F7021E030E0A9018C
:101D400002C0440F551F8A95E2F740A308950F93F0
:101D50001F93CF93DF93C3E0D0E001E010E0FE01DA
:101D6000E254FD4F8081E82FEF70F0E021A18295D1
:101D70008F70A80102C0440F551F8A95E2F7CA016F
:101D8000822B81A38C2F0E94930E219740F78BE02A
:101D900090E061E070E0FC01EE54FD4F2081E22F05
:101DA000EF70F0E042A122952F70DB0102C0AA0F74
:101DB000BB1F2A95E2F79D01242B22A3019758F718
:101DC000DF91CF911F910F9108950F931F93CF93A0
:101DD000DF9385B7806885BF85B7806885BFC3E01E
:101DE000D0E001E010E0FE01E254FD4F8081E82FD9
:101DF000EF70F0E021A182958F70A80102C0440F1E
:101E0000551F8A95E2F7CA01822B81A38C2F0E946D
:101E1000930E219740F78BE090E061E070E0FC01C9
:101E2000EE54FD4F2081E22FEF70F0E042A12295A9
:101E30002F70DB0102C0AA0FBB1F2A95E2F79D019C
:101E4000242B22A3019758F7DF91CF911F910F9177
:101E50000C941309EF92FF920F931F93CF93DF938C
:101E600000E913E0C3E0EE24E394F12CD5E08C2FDD
:101E70000E94930E8BE090E040E050E0FC01EE54B5
:101E8000FD4F6081E62FEF70F0E020A130E0629519
:101E90006F7002C0359527956A95E2F720FD09C05D
:101EA0009701082E02C0220F331F0A94E2F7422B3B
:101EB000532B019718F7F801929182918F018417A3
:101EC000950721F051834083D09375028C2F0E9497
:101ED000930EC15060F68091750287FD2CC0815031
:101EE000809375028F3F39F08FE99FE00197F1F7FA
:101EF00000C0000020C080918E0390918F039093CA
:101F000097038093960380918C0390918D03909317
:101F100095038093940380918A0390918B0390930F
:101F20009303809392038091880390918903909307
:101F30009103809390030E94150981E0DF91CF9176
:101F40001F910F91FF90EF900895E82FF0E0EE0FB2
:101F5000FF1FE057FC4F80819181089508950F93F2
:101F60001F93CF9308E913E0C0E0F80192918291AA
:101F70008F010E94A728C80FF3E000391F07A9F7B7
:101F80008C2FCF911F910F9108950E94F0298111FC
:101F900002C00E94CC290E941A2A809379043E9A9A
:101FA000809171008D7F8093710082E0809390001A
:101FB0008AE18093910081E080939A030895809153
:101FC0009A03811102C00E94C50F1092EA03109279
:101FD000E903809171008D7F809371008091900062
:101FE0008F73809390001092AC031092AB03109209
:101FF000E3031092E4031092E5031092E6031092BB
:10200000E2031092E103E1ECF3E0A1EBB3E0119203
:102010001192119211921D921D9283E0E13EF807F8
:10202000B1F70895CF92DF92EF92FF920F931F9333
:10203000CF93DF932091AB03222309F484C06B017B
:102040007C0180919A03811102C00E94C50F01EEAC
:1020500013E0C7E0D0E0A7019601F80192918291C8
:10206000729162918F010E946D2F811131C0FE012A
:10207000EE0FFF1FEE0FFF1FEF53FC4F1082118278
:1020800012821382DE01AA0FBB1FAF54BC4F119600
:102090001C921E92C730D105E9F0219644815581EA
:1020A00066817781408351836283738314821582B2
:1020B0001682178212968D919C91139711969C937C
:1020C0008E9313961C921E92129734961296E2CF1C
:1020D000219708F68091E9039091EA03019797FD13
:1020E00005C09093EA038093E90304C01092EA03C9
:1020F0001092E9038091E9039091EA032091E703AC
:102100003091E8032817390724F01092E803109261
:10211000E703892BC1F4809171008D7F809371005A
:10212000809190008F73809390001092E30310923F
:10213000E4031092E5031092E6031092E20310927A
:10214000E1031092AB03DF91CF911F910F91FF90AC
:10215000EF90DF90CF9008951F920F920FB60F92DD
:1021600011244F925F926F927F928F929F92AF92C3
:10217000BF92CF92DF92EF92FF922F933F934F93B4
:102180005F936F937F938F939F93AF93BF93CF93FF
:10219000DF93EF93FF938091AB03882309F49BC1F6
:1021A000C091E903D091EA031C161D060CF093C1FF
:1021B00040909B0350909C0360909D0370909E0301
:1021C00020E030E0A901C301B2010E942E311816AF
:1021D0000CF065C0C130D10509F452C08091E7030D
:1021E0009091E803BE010E942B337C019093E80399
:1021F0008093E7038090AD039090AE03A090AF036F
:10220000B090B00320E030E040E85FE3C501B401E6
:102210000E94012F6093AD037093AE038093AF03D0
:102220009093B003F701EE0FFF1FEE0FFF1FEF5368
:10223000FC4FA301920160817181828193810E9490
:10224000722F20E030E040E05EE30E9433319B01DA
:10225000AC01C501B4010E942E3118168CF4C701DF
:102260000196BE010E942B339093E8038093E7030D
:102270001092AD031092AE031092AF031092B00310
:10228000E091E703F091E803EE0FFF1FEE0FFF1F51
:10229000EF53FC4F6081718182819381D0C0C090E7
:1022A000E303D090E403E090E503F090E60320E040
:1022B00030E0A901C701B6010E946D2F2197882344
:1022C00009F4A2C0FE01EE0FFF1FEE0FFF1FEF5338
:1022D000FC4F80809180A280B380A5019401C7014A
:1022E000B6010E946D2F87FF31C0A501940160E007
:1022F00070E08CED93EC0E94722F20E030E040E41F
:1023000051E40E94722F20E030E040E05FE30E9441
:1023100033319B01AC0160E070E080E090E40E940A
:10232000A0319B01AC01C501B4010E9433319B0176
:10233000AC01C701B6010E946D2F87FF07C0A7013E
:10234000960160E070E08CED93E439C0A501940142
:10235000C701B6010E942E3118160CF055C0A50118
:10236000940160E070E08CED93E40E94722F20E015
:1023700030E040E451E40E94722F20E030E040E081
:102380005FE30E9433319B01AC0160E070E080E0CC
:1023900090E40E94A0319B01AC01C501B4010E94F0
:1023A00033319B01AC01C701B6010E942E311816D2
:1023B0005CF5A701960160E070E08CED93EC0E9463
:1023C000722F20E030E040E451E40E94722F20E0C0
:1023D00030E040E05FE30E9433319B01AC0160E0FC
:1023E00070E080E090E40E94A0319B01AC01C70145
:1023F000B6010E9433316093E3037093E40380934A
:10240000E5039093E60313C0FE01EE0FFF1FEE0FEE
:10241000FF1FEF53FC4F80819181A281B381809394
:10242000E3039093E403A093E503B093E603609184
:10243000E3037091E4038091E5039091E60320911A
:102440009803309199032F3F4FEF340731F02F5FFE
:102450003F4F30939903209398030E94E7146B0138
:102460007C0120E034E244EF51E40E946D2F87FFAD
:1024700008C086EFC82E88E2D82E84EFE82E81E4CB
:10248000F82E20E030E040E051E4C701B6010E94A0
:1024900033319B01AC0160E074E284E79BE40E946D
:1024A000722F6B017C010E94EB2F70939700609359
:1024B00096002091760230917702409178025091F7
:1024C0007902C701B6010E9433310E94EB2F70934D
:1024D0009900609398008091AC03882309F433C17C
:1024E000C090A703D090A803E090A903F090AA039E
:1024F00020E030E0A901C701B6010E942E31181674
:10250000D4F580919803909199038F3F2FEF920714
:1025100029F001969093990380939803C701B6011F
:102520000E94E71420E030E040E051E40E943331A3
:102530009B01AC0160E074E284E79BE40E94722F8F
:102540006B017C010E94EB2F7093970060939600C3
:102550002091760230917702409178025091790271
:10256000C701B6010E9433310E94EB2F709399008E
:102570006093980008C010929700109296001092F5
:102580009900109298006091A1037091A2036F5F6F
:102590007F4F7093A2036093A10320919600309126
:1025A000970080E090E0232BF1F0C0919600D0914D
:1025B00097000E941A306B017C01BE0180E090E020
:1025C0000E941A309B01AC016091A3037091A40397
:1025D0008091A5039091A6030E94722F20E03FEF07
:1025E0004FE757E410C00E941A306B017C0120E0D5
:1025F00030EE4FEF54E46091A3037091A4038091F7
:10260000A5039091A6030E9433319B01AC01C70141
:10261000B6010E942E3187FD96C080919F038F5F87
:1026200080939F0390E02091750430917604821787
:102630009307A0F080918004882319F010929F03E3
:102640000DC0809171008D7F80937100809190000A
:102650008F73809390001092AC037DC08091A00393
:10266000C0919F03811128C0C0907A04D0907B0450
:10267000E0907C04F0907D0420E030E0A901C701E7
:10268000B6010E942E311816BCF481E08093A0039D
:102690001092A7031092A8031092A9031092AA0304
:1026A000C092A303D092A403E092A503F092A603E4
:1026B000C150C0939F0343C01092A003109299038E
:1026C00010929803E0917704F091780448E0C49F59
:1026D000E00DF11D112480819181A281B38180934D
:1026E000A7039093A803A093A903B093AA0320E0A3
:1026F00030E040E85EE364817581868197810E94C5
:1027000033316B017C0180917A02682F70E080E0A8
:1027100090E00E941A3020E030E048EC52E40E9441
:10272000722F9B01AC01C701B6010E943331609347
:10273000A3037093A4038093A5039093A603109220
:10274000A2031092A1038091790480FD04C010922D
:10275000AC031092AB03FF91EF91DF91CF91BF914A
:10276000AF919F918F917F916F915F914F913F9129
:102770002F91FF90EF90DF90CF90BF90AF909F9000
:102780008F907F906F905F904F900F900FBE0F9043
:102790001F901895CF92DF92EF92FF92CF93DF9325
:1027A0006B017C01EA0180919A03811102C00E94B1
:1027B000C50F8091790480FF46C08091E903909114
:1027C000EA0308970CF03FC0809171008D7F8093E1
:1027D00071008091AC0381110E94DF0F81E0809332
:1027E000AB03109299031092980320E030E0A90106
:1027F000C701B6010E942E311816DCF48091E9035E
:102800009091EA03FC01EE0FFF1FEE0FFF1FEF5345
:10281000FC4FC082D182E282F382FC01EE0FFF1FE7
:10282000EF54FC4FD183C08301969093EA038093C9
:10283000E903809171008260809371008091900023
:10284000806880939000DF91CF91FF90EF90DF90B0
:10285000CF9008958F929F92AF92BF92CF92DF92C6
:10286000EF92FF920F931F93CF93DF93EC017B01C5
:10287000D42E4801590180919A03811102C00E940F
:10288000C50F8091790480FF6BC0809171008D7FAE
:10289000809371008091AB0381110E94DF0F81E072
:1028A0008093AC03D0937804C0937704F0927604BD
:1028B000E0927504D092800480927A0490927B0416
:1028C000A0927C04B0927D041092AD031092AE03EE
:1028D0001092AF031092B00310929F0388819981E8
:1028E000AA81BB818093A7039093A803A093A90317
:1028F000B093AA0320E030E040E85EE36C817D8184
:102900008E819F810E9433316B017C0180917A021C
:10291000682F70E080E090E00E941A3020E030E004
:1029200048EC52E40E94722F9B01AC01C701B60132
:102930000E9433316093A3037093A4038093A50393
:102940009093A6031092A2031092A10380917100AC
:1029500082608093710080919000806880939000E5
:10296000DF91CF911F910F91FF90EF90DF90CF906B
:10297000BF90AF909F908F9008958091790481705F
:102980000895809179048160809379040E941E2AC1
:102990000C946D09809179048E7F809379040C9456
:1029A0001E2A8091EB0390E0019666E070E00E94A1
:1029B0002B338093EB0308958091EB0390E0019714
:1029C00066E070E00E942B338093EB0308958F92B2
:1029D0009F92AF92BF92CF92DF92EF92FF920F93AE
:1029E0001F93CF93DF936B017C01C0919803D0912B
:1029F0009903BE0180E090E00E941A304B015C0117
:102A0000A701960160E070E08CE594E40E94722FCB
:102A10009B01AC01C501B4010E9433310E94EB2F30
:102A20002091EB03233009F473C028F4222351F0E2
:102A30002130E9F02CC1243009F4A0C0253009F47C
:102A4000E0C025C180E090E0A0E0BFE38093760283
:102A500090937702A0937802B093790210929B032F
:102A600010929C0310929D0310929E0310C110922D
:102A70009B0310929C0310929D0310929E0364315D
:102A8000710540F46A30710560F520E030E040E8FF
:102A90005EE32BC0693C710508F0AAC080E090E0BD
:102AA0000E941A3020E030E040EA51E40E94002FFA
:102AB00020E030E044E353E40E94722F9B01AC011C
:102AC0000E94333120E030E040E05EE30E94333189
:102AD0009B01AC0160E070E080E09EE30E94002F6B
:102AE00044C020E030E040E05FE3C701B6010E944F
:102AF00033316B017C0180E090E0A0E0BEE3809385
:102B0000760290937702A0937802B0937902BFC0C7
:102B100010929B0310929C0310929D0310929E03AF
:102B20004AE0469F9001479F300D1124C90168EB90
:102B30007BE00E941733BC016C5D754077FF03C0DA
:102B4000719561957109882777FD8095982F0E946E
:102B50001C302EE333EC4EE259E30E94333120E087
:102B600030E040EC5EE30E94012F609376027093A8
:102B70007702809378029093790289C010929B0328
:102B800010929C0310929D0310929E03CE018370BD
:102B90009927892BE1F0BE016170772780E090E0F2
:102BA0000E941A3020E030E040E05EE30E943331C2
:102BB00020E030E040E45FE30E94012F6093760262
:102BC0007093770280937802909379020CC080E032
:102BD00090E0A0E0BFE38093760290937702A09309
:102BE0007802B0937902C770DD27CD2B09F04FC072
:102BF0001092760210927702109278021092790267
:102C000046C010929B0310929C0310929D03109259
:102C10009E0300E010E020E03FE300937602109373
:102C2000770220937802309379026739710578F141
:102C300080E090E00E941A3020E030E047E153E469
:102C40000E94002F20E030E04AE754E40E94722FF7
:102C500020E030E048E452E40E94333120E030E0EC
:102C600040EA51E40E9462300E94E42F660F771F11
:102C7000660F771FFB01EE53FD4F208131814281AA
:102C80005381C701B6010E9433316B017C01C7013A
:102C9000B601DF91CF911F910F91FF90EF90DF90E0
:102CA000CF90BF90AF909F908F9008958091FC033C
:102CB0000895CF93DF9300D01F92CDB7DEB79C016C
:102CC00080918504843019F593E099833B832A83AE
:102CD0009093E9008FEF9091E800815095FD06C038
:102CE00095ED9A95F1F700008111F5CF8091E800FC
:102CF00085FF0DC040E050E063E070E0CE0101963A
:102D00000E94B9188091E8008E778093E8000F90B8
:102D10000F900F90DF91CF910895CF93DF9300D064
:102D20001F92CDB7DEB720918504243021F522E033
:102D300029839B838A8383E08093E9008FEF9091BE
:102D4000E800815095FD06C095ED9A95F1F70000D9
:102D50008111F5CF8091E80085FF0DC040E050E083
:102D600063E070E0CE0101960E94B9188091E800FE
:102D70008E778093E8000F900F900F90DF91CF91A6
:102D80000895209185042430F1F422E02093E90095
:102D90002FEF3091E800215035FD06C035ED3A9512
:102DA000F1F700002111F5CF2091E80025FF0BC0BD
:102DB00040E050E065E070E00E94B9188091E800C2
:102DC0008E778093E8000895CF93DF93EC01909184
:102DD0008504943009F046C0809185028823D9F09B
:102DE000809186028823B9F09093E9008FEF90914B
:102DF000E800815095FD06C095E19A95F1F7000035
:102E00008111F5CF8091E80085FF2CC040E050E0B3
:102E100060E170E017C081E08093E9008FEF90914E
:102E2000E800815095FD06C095ED9A95F1F70000F8
:102E30008111F5CF8091E80085FF14C040E050E09B
:102E400068E070E0CE010E94B9188091E8008E77AA
:102E50008093E80080E1FE01ACEEB3E001900D92BA
:102E60008A95E1F7DF91CF910895809184048111D3
:102E700009C00E944E1A0E94AB1A8091E200846041
:102E80008093E200089510928404089508950895AF
:102E90000C94F42842E061EC81E00E94C81942E001
:102EA00061EC82E00E94C81942E061EC83E00E947C
:102EB000C81942E161EC84E00C94C8198091870440
:102EC000833009F455C030F4813071F0823009F458
:102ED0008EC008958A3009F47AC08B3009F460C03E
:102EE000893009F09CC020C080918604813A09F0A5
:102EF00096C08091E800877F8093E80080918A04E3
:102F000090918B04892B21F460E18CEE93E003C057
:102F100060E080E090E070E00E9404198091E80099
:102F20008B778093E800089580918604813209F0C0
:102F300076C080918A0490918B04009719F00397D2
:102F400009F06DC08091E800877F8093E800809150
:102F5000E80082FD05C0809185048111F8CF5FC033
:102F60008091F1008093FC038091E8008B7753C03F
:102F700080918604813A09F052C080918A04909130
:102F80008B04892B09F04BC08091E800877F8093E8
:102F9000E8008091E80080FFFCCF8091850236C078
:102FA000809186048132D9F580918A0490918B04B6
:102FB000892BA9F58091E800877F8093E8000E9423
:102FC000FD1980918804809385020C9433228091AE
:102FD0008604813221F58091E800877F8093E800A4
:102FE0000E94FD19809189048093FD0308958091CA
:102FF0008604813AA1F48091E800877F8093E800FD
:103000008091E80080FFFCCF8091FD038093F10068
:103010008091E8008E778093E8000C94FD19089564
:1030200084B7877F84BF0FB6F894A895809160001D
:10303000886180936000109260000FBE80E88093EA
:103040006100109261000E94A01D0E944E1A0E9411
:10305000AB1A8091E20084608093E20078940E9431
:10306000311D0E94A21D8BE792E00E944C1D8091B1
:103070008504853069F40E94B328809183048823F5
:10308000B1F30E94E328882391F30E94A318EFCFA5
:103090000E94AA1DECCF292F332723303105C9F018
:1030A00064F42130310581F02230310509F043C04C
:1030B0008DE690E02DEF39E042C021323105F1F08C
:1030C0002232310541F137C082E190E02AE63AE050
:1030D00036C099278130910541F08230910541F049
:1030E000892B49F5E9EFF9E005C0EBECF9E002C006
:1030F000E1EAF9E0849190E09F0121C06430D8F4C6
:10310000E62FF0E0EE0FFF1FE25EFC4F20813181E1
:1031100089E090E014C0643070F470E0FB01EE0FC1
:10312000FF1FEA5EFC4F20813181FB01EE5EFC4F08
:10313000808190E004C080E090E020E030E0FA017F
:1031400031832083089580E189BD82E189BD09B47E
:1031500000FEFDCF8091D8008F7D8093D8008091B4
:10316000E00082608093E0008091E00081FDFCCF70
:103170000895CF92DF92EF92FF920F931F93CF9318
:10318000DF93EC018B016A010E941C1A811133C08C
:10319000C114D10439F0F60180819181081B190B0B
:1031A000C80FD91FE12CF12C0115110519F18091DF
:1031B000E80085FD16C08091E8008E778093E800D6
:1031C000C114D10449F0F60180819181E80EF91E05
:1031D000F182E08285E00FC00E941C1A882321F34F
:1031E0000AC089918093F10001501109FFEFEF1A95
:1031F000FF0ADACF80E0DF91CF911F910F91FF900E
:10320000EF90DF90CF90089520918C0430918D0441
:103210002617370748F06115710539F42091E80049
:103220002E772093E80001C0B90140E061157105D7
:10323000A9F120918504222309F443C0253009F423
:1032400042C02091E80023FD40C02091E80022FD0B
:1032500032C02091E80020FFE9CF4091F300209197
:10326000F20030E0342BFC01CF016115710559F0FB
:103270002830310540F481918093F100615071094B
:103280002F5F3F4FF1CF41E02830310509F040E09A
:103290002091E8002E772093E800C8CF4111C9CFD4
:1032A0000AC080918504882361F0853061F08091A7
:1032B000E80083FD0AC08091E80082FFF2CF80E041
:1032C000089582E0089583E0089581E008952091B3
:1032D0008C0430918D042617370748F0611571056D
:1032E00039F42091E8002E772093E80001C0B9015D
:1032F000FC0120E06115710591F18091850488231E
:1033000009F440C0853009F43FC08091E80083FD96
:103310003DC08091E80082FD2FC08091E80080FFD1
:10332000E9CF2091F3008091F20090E0922B61159B
:10333000710559F08830910540F424912093F100F3
:103340003196615071090196F2CF21E0089709F09A
:1033500020E08091E8008E778093E800CBCF2111A8
:10336000CCCF0AC080918504882361F0853061F05C
:103370008091E80083FD0AC08091E80082FFF2CFCF
:1033800080E0089582E0089583E0089581E0089543
:10339000982F973058F59093E900981739F070916D
:1033A000EC002091ED005091F00003C0242F762F07
:1033B00050E021FF19C03091EB003E7F3093EB00CD
:1033C0003091ED003D7F3093ED003091EB003160A6
:1033D0003093EB007093EC002093ED005093F000DD
:1033E0002091EE0027FF07C09F5FD3CF8F7080939F
:1033F000E90081E0089580E008958091860487FFC8
:1034000011C08091E80082FD05C080918504811182
:10341000F8CF11C08091E8008B770BC080918504B4
:10342000882349F08091E80080FFF8CF8091E80080
:103430008E778093E80008952091E4003091E500B4
:1034400095E64091EC00842F817040FF22C080916E
:10345000E80080FD1CC080918504882391F08530B0
:1034600091F08091EB0085FD10C04091E4005091F7
:10347000E5004217530729F39A01915011F784E0B0
:10348000089582E0089583E0089581E0089580E042
:1034900008954091E80042FFDECF08950E94BC1AD3
:1034A0000E94C41AE0EEF0E0808181608083E8ED44
:1034B000F0E080818F77808319BCA7EDB0E08C911C
:1034C0008E7F8C9380818F7E8083109284040895F8
:1034D0000F931F93CF93DF930E94BC1A0E94C41ACC
:1034E000C8EDD0E088818F77888388818068888361
:1034F00088818F7D888319BC109285041092810485
:10350000109283041092820400EE10E0F801808192
:103510008B7F808388818160888342E060E080E0E7
:103520000E94C819E1EEF0E080818E7F8083E2EE98
:10353000F0E0808181608083808188608083F801F1
:1035400080818E7F8083888180618883DF91CF91A5
:103550001F910F910895E8EDF0E080818F7E8083C8
:10356000E7EDF0E080818160808384E082BF81E0CC
:10357000809384040C94681AE8EDF0E080818E7FDB
:1035800080831092E20008951092DA001092E10018
:1035900008951F920F920FB60F9211242F933F930D
:1035A0004F935F936F937F938F939F93AF93BF934B
:1035B000EF93FF938091E10082FF0BC08091E200C6
:1035C00082FF07C08091E1008B7F8093E1000E9421
:1035D000301D8091DA0080FF1FC08091D80080FFED
:1035E0001BC08091DA008E7F8093DA008091D90031
:1035F00080FF0DC080E189BD82E189BD09B400FE74
:10360000FDCF81E0809385040E94351705C019BC69
:10361000109285040E9443178091E10080FF19C039
:103620008091E20080FF15C08091E2008E7F809340
:10363000E2008091E20080618093E2008091D800F6
:1036400080628093D80019BC85E0809385040E9435
:1036500047178091E10084FF30C08091E20084FF31
:103660002CC080E189BD82E189BD09B400FEFDCF97
:103670008091D8008F7D8093D8008091E1008F7E6B
:103680008093E1008091E2008F7E8093E200809140
:10369000E20081608093E20080918104882311F030
:1036A00084E007C08091E30087FD02C081E001C093
:1036B00083E0809385040E9448178091E10083FF96
:1036C00029C08091E20083FF25C08091E100877FBF
:1036D0008093E10082E080938504109281048091C0
:1036E000E1008E7F8093E1008091E2008E7F8093E5
:1036F000E2008091E20080618093E20042E060E0BD
:1037000080E00E94C8198091F00088608093F000EA
:103710000E944617FF91EF91BF91AF919F918F91BA
:103720007F916F915F914F913F912F910F900FBEBD
:103730000F901F9018951F920F920FB60F921124A1
:103740002F933F934F935F936F937F938F939F93A9
:10375000AF93BF93CF93DF93EF93FF93C091E900B3
:10376000CF708091EC00D82FD17080FDD0E81092FE
:10377000E9008091F000877F8093F00078940E94A8
:10378000DF1B1092E9008091F00088608093F000C8
:10379000CD2BCF70C093E900FF91EF91DF91CF91D6
:1037A000BF91AF919F918F917F916F915F914F9159
:1037B0003F912F910F900FBE0F901F9018951F9360
:1037C000CF93DF93CDB7DEB7AA970FB6F894DEBFDD
:1037D0000FBECDBFE6E8F4E088E08E0F9091F100D7
:1037E00091938E13FBCF0E945E178091E80083FFB8
:1037F0001FC18091860490918704492F50E04A3080
:10380000510508F015C1FA01EB59FF4F0C943F33F5
:10381000803881F0823809F00BC180918A048F7062
:103820008093E9008091EB0085FB882780F9109256
:10383000E90006C080918204909183049111826016
:103840009091E800977F9093E8008093F1001092A8
:10385000F100C8C0282F2D7F09F0EAC0882319F095
:10386000823061F0E5C080918804813009F0E0C0C9
:10387000933009F080E0809383042BC0809188040A
:10388000811127C080918A048F7009F4D1C0809380
:10389000E9002091EB0020FF1CC0933021F48091BF
:1038A000EB00806214C09091EB0090619093EB006C
:1038B00021E030E0A90102C0440F551F8A95E2F7CC
:1038C0004093EA001092EA008091EB0088608093B8
:1038D000EB001092E9008091E800877F86C081119B
:1038E000A7C0109188041F778091E3008078812B16
:1038F0008093E3008091E800877F8093E8000E9436
:10390000FD198091E80080FFFCCF8091E300806882
:103910008093E300111102C082E001C083E0809334
:10392000850486C08058823008F082C08091880467
:10393000909189048C3D53E0950779F583E08A8363
:103940008AE289834FB7F894DE01139620E03EE0C7
:1039500051E2E32FF0E050935700E49120FF03C0C1
:10396000E295EF703F5FEF708E2F90E0EA3010F03D
:10397000C79601C0C0968D939D932F5F243149F760
:103980004FBF8091E800877F8093E8006AE270E093
:10399000CE0101960E94041914C0AE014F5F5F4F23
:1039A00060918A040E944B18BC01892B09F440C025
:1039B0009091E800977F9093E80089819A810E9416
:1039C00067198091E8008B778093E80031C08038D8
:1039D00079F58091E800877F8093E80080918104E9
:1039E0008093F1008091E8008E778093E8000E9438
:1039F000FD191EC081111CC0909188049230C0F442
:103A00008091E800877F8093E800909381040E9472
:103A1000FD1980918104811106C08091E30087FD2A
:103A200002C081E001C084E0809385040E944A17AF
:103A30008091E80083FF0AC08091E800877F80932F
:103A4000E8008091EB0080628093EB00AA960FB6AD
:103A5000F894DEBF0FBECDBFDF91CF911F910895C7
:103A60000895CF93809185048823A1F0C091E90047
:103A7000CF709091EC00892F817090FD80E8C82B69
:103A80001092E9008091E80083FD0E94DF1BCF7057
:103A9000C093E900CF9108959093030480930204AA
:103AA0000895E0910204F0910304309721F0019011
:103AB000F081E02D099480E00895E0910204F091F6
:103AC0000304309721F00280F381E02D09940895DA
:103AD000E0910204F0910304309721F00480F58115
:103AE000E02D09940895209100043091010482177B
:103AF000930771F09093010480930004E091020415
:103B0000F0910304309721F00680F781E02D0994AD
:103B100008952091FE033091FF038217930771F0FF
:103B20009093FF038093FE03E0910204F09103045D
:103B3000309721F00084F185E02D099408950895CF
:103B40000C949F1D0E9428290E94E50E0E94AE2918
:103B50000C94652E5F926F927F928F929F92AF929C
:103B6000BF92CF92DF92EF92FF920F931F93CF936A
:103B7000DF9300D000D01F92CDB7DEB70E942A0F8E
:103B80009DE0C92E94E0D92E03E010E0AA24A3946E
:103B9000B12C502E802F0E94A50F4C01F60172907F
:103BA00062906F016826792661147104A1F40150B6
:103BB000110978F78FEF89838A831B820E9431294C
:103BC0008160782F9D838C8349815A816B818D819F
:103BD0000E945A1E38C08091620481FD0E94AE0F7F
:103BE0002BE030E07501022E02C0EE0CFF1C0A949F
:103BF000E2F7C70186219721892B09F129835A828F
:103C00008E209F2091E0892809F490E09B830E94F8
:103C100031298160782F9D838C8349815A816B8102
:103C20008D810E945A1E000F111FF801EB5FFB4FA0
:103C300080819181E826F926F182E08204C021503A
:103C4000310980F6B4CF0E949D2B109104040E948C
:103C5000511D1817D1F00E94511D809304040F903C
:103C60000F900F900F900F90DF91CF911F910F91B8
:103C7000FF90EF90DF90CF90BF90AF909F908F908C
:103C80007F906F905F900C94910E0F900F900F901B
:103C90000F900F90DF91CF911F910F91FF90EF90B8
:103CA000DF90CF90BF90AF909F908F907F906F905C
:103CB0005F900895CF93DF93CDB7DEB72B970FB604
:103CC000F894DEBF0FBECDBF4F83588769877A87D0
:103CD0008B87DE01119686E0FD0111928A95E9F746
:103CE00085E0FE01379601900D928A95E1F74981B2
:103CF0005A816B817C818D819E810E94D1242B967B
:103D00000FB6F894DEBF0FBECDBFDF91CF910895FF
:103D1000CF93882309F4C2C0C82F823859F40E9477
:103D2000511D81FDBBC089E30E94AB270E9478280A
:103D300089E30CC0833879F40E94511D80FDAEC028
:103D400083E50E94AB270E94782883E50E94ED2737
:103D5000CF910C947828843859F40E94511D82FD2B
:103D60009DC087E40E94AB270E94782887E4EECFAD
:103D70008CEF8C0F813A48F48C2F0E94CD2D81114D
:103D80008DC08C2F0E94AB27E3CF80E28C0F883050
:103D900048F4C77081E001C0880FCA95EAF70E9415
:103DA0003128D6CF8BE58C0F833078F4C53A29F0D3
:103DB000C63A31F083E890E005C081E890E002C0A7
:103DC00082E890E0CF910C94731D88E58C0F8331CD
:103DD00008F064C0C83A39F1C93A41F1CA3A49F128
:103DE000CB3A51F1CC3A59F1CD3A61F1C03B69F18E
:103DF000CE3A71F1CF3A79F1C13B81F1C23B89F101
:103E0000C33B91F1C43B99F1C53BA1F1C63BA9F17C
:103E1000C73BB1F1C83BB9F1C93BC1F1CA3BC9F1DC
:103E200080E090E038C082EE90E035C089EE90E00E
:103E300032C08AEE90E02FC085EB90E02CC086EB7C
:103E400090E029C087EB90E026C08CEC90E023C086
:103E50008DEC90E020C083E891E01DC08AE891E0FD
:103E60001AC082E991E017C084E991E014C081E2B0
:103E700092E011C083E292E00EC084E292E00BC0B7
:103E800085E292E008C086E292E005C087E292E017
:103E900002C08AE292E0CF910C94891DCF910895DF
:103EA000882309F44BC0823859F40E94511D81FFC8
:103EB00045C089E30E94AB270E94782889E30CC0A3
:103EC000833871F40E94511D80FF38C083E50E9441
:103ED000AB270E94782883E50E94ED270C94782870
:103EE000843859F40E94511D82FF28C087E40E9443
:103EF000AB270E94782887E4EFCF9CEF980F913A88
:103F000058F390E2980F983050F4877091E001C018
:103F1000990F8A95EAF7892F0E943728DFCF9BE512
:103F2000980F933020F480E090E00C94731D885A31
:103F3000833120F480E090E00C94891D089588235B
:103F400021F00E9431280C9478280895882321F0CC
:103F50000E9437280C94782808957F928F929F9220
:103F6000AF92BF92CF92DF92EF92FF920F931F9387
:103F7000CF93DF931F92CDB7DEB77C01C62E772E8D
:103F8000FC01058102950F70128111110E944E28CB
:103F90000E94A427882379F0112369F080E28C0D18
:103FA000883048F082E00E948D270E94A42791E08B
:103FB000D82ED92601C0D12CE72DE295EF70F0E084
:103FC000E159FF4F0C943F33872D807F072D0F70F1
:103FD000882311F00295007F112389F0002309F452
:103FE00099C180E28C0D883020F4802F0E94312806
:103FF00003C0802F0E9441280E9478288BC18C2DFD
:104000000E94501F002309F4C3C180E28C0D883048
:1040100020F4802F0E94372803C0802F0E94472859
:104020000E947828B5C1872D807F972D9F708032A0
:1040300011F4892F03C0892F8295807FCC2021F035
:10404000F1E0CF16A1F01DC0112339F0002319F1C2
:10405000013009F50E9461289BC1002319F001304D
:1040600009F496C189830E946428898110C11123B3
:1040700021F0063008F08CC10EC0053008F088C170
:1040800006C1112359F0002331F0F701958190FF0B
:1040900041C19F7095830E949F1F7AC1002309F43C
:1040A000F6C03EC1872D86958695837090E0009777
:1040B00019F0019761F06CC1112321F08C2D972D1F
:1040C000937002C080E090E00E94731D61C11123D3
:1040D00021F08C2D972D937002C080E090E00E941B
:1040E000891D56C18C2D112319F00E94A52A02C0EA
:1040F0000E940D2B0E94922B4BC1872D837009F0DB
:1041000052C0111145C18C2D829586958770880FFC
:10411000880F9C2D9F70892E912CA12CB12C082EDC
:1041200004C0880C991CAA1CBB1C0A94D2F7C4FEBC
:1041300014C00FE010E020E030E0B901A80104C095
:10414000440F551F661F771F8A95D2F7CB01BA011E
:10415000609570958095909503C060E070E0CB010C
:10416000272D26952695237030E02230310569F001
:104170002330310589F0682979298A299B29213042
:10418000310571F00E94192603C1682979298A290D
:104190009B290E943526FCC00E941926C501B40146
:1041A0000E94FD25F5C0112319F0872D817001C0F3
:1041B0008695882309F4ECC08C2D829586958770AE
:1041C000880F880F9C2D9F70892E912CA12CB12CCB
:1041D000082E04C0880C991CAA1CBB1C0A94D2F798
:1041E000C4FE14C00FE010E020E030E0B901A801E7
:1041F00004C0440F551F661F771F8A95D2F7CB0165
:10420000BA01609570958095909503C060E070E06C
:10421000CB01272D269526952370422F50E0423062
:10422000510569F04330510589F0682979298A29B7
:104230009B294130510571F00E94F326A9C06829DD
:1042400079298A299B290E940F27A2C00E94F32660
:10425000C501B4010E94D7269BC08C2D90E0FC01C3
:10426000E05EF109E531F10508F050C0E158FF4F7B
:104270000C943F330C2D0F70872D8F71112321F07B
:104280000E947026802F07CF0E949126802F0E94C7
:10429000A61F7EC0112341F0053008F079C0872D9C
:1042A0008F710E94B62674C0063008F071C0F7CF37
:1042B000112339F0872D8F710E94702669C0112358
:1042C000C9F3872D8F710E94912662C0112329F0B6
:1042D000872D8F710E945B265BC00E94512658C0BB
:1042E000112351F0172D1F71812F0E94702663E05A
:1042F000812F0E9484274CC081E00E948D270230CC
:1043000008F446C082E00E948D2742C0112331F09C
:10431000002381F28C2D0E94881E3AC0002389F26E
:104320008C2D0E94501F34C0472D4F706C2DC7013B
:104330000E94BD060E9475252BC0111129C0472D72
:104340004F7050E042305105B9F04CF44115510521
:1043500081F041305105E1F40E948D2E19C04330A7
:10436000510569F04430510599F48C2D0E94DF2EDF
:104370000FC00E94762E0CC00E94A92E09C00E9478
:10438000BC2E06C0472D4F706C2DC7010E94010E38
:10439000DD20F9F00E94802780FD1BC0F70112820A
:1043A0000E947A270E947026C7010E94F8210E946D
:1043B0007A270F90DF91CF911F910F91FF90EF908F
:1043C000DF90CF90BF90AF909F908F907F900C9494
:1043D00091260F90DF91CF911F910F91FF90EF9059
:1043E000DF90CF90BF90AF909F908F907F90089577
:1043F0000F931F93CF93DF93EC01888199812B81D9
:104400003C81232BB9F09F3F11F48F3F99F0CE01EF
:104410000E946E09882371F0688179818A810E94E7
:1044200076278C010E942B270E94F225B801CE012D
:104430000E94AD1FDF91CF911F910F9108950E94AF
:104440004E280E945E280E9423280E9478280E94FD
:10445000432C0E94922B80E090E00E94731D80E02C
:1044600090E00C94891D0E943E280C941F220E940B
:104470006B27292F22952F7030E02C3031054CF41A
:104480002A3031056CF42250310922303105A8F46C
:1044900007C02C30310569F02F30310551F00DC0C7
:1044A000803F69F018F4803E40F409C0843F29F44D
:1044B00006C093FB882780F9089580E0089581E085
:1044C0000895CF93DF9300D000D01F92CDB7DEB711
:1044D0000F900F900F900F900F90DF91CF91089554
:1044E000CF93DF9300D000D000D0CDB7DEB72696B3
:1044F0000FB6F894DEBF0FBECDBFDF91CF91089508
:104500001F93CF93DF93C0910D0416E080910E04AA
:10451000C81799F0D0E01C9FF0011D9FF00D1124E9
:10452000E15FFB4F4081518162817381848195817C
:104530000E9470222196C770E9CFDF91CF911F9121
:10454000089540913F04509140046091410470915E
:10455000420480914304909144040C947022809111
:10456000440482958F7009F054C0809141048823DF
:1045700009F44FC080910D04A0910E0460913F0496
:10458000709140044091420450914304B6E08A1770
:1045900009F43FC090E041155105C1F17F3F11F48E
:1045A0006F3FA1F1B89FF001B99FF00D1124E15FB9
:1045B000FB4F218172132AC02081621327C0228100
:1045C000211124C0238134812417350710F4215090
:1045D0003109241B350B283C3105C0F420914404DB
:1045E0002F7020612093440426E0289FF001299F2A
:1045F000F00D1124EC5EFB4F80818F708061808311
:104600008FE394E00E94F8210C9480220196877039
:10461000BECF0895CF92DF92EF92FF920F931F9338
:10462000CF93DF93CDB7DEB762970FB6F894DEBFB6
:104630000FBECDBF8C0185E0F801DE011D96019013
:104640000D928A95E1F7D8014C9111965C911197E2
:1046500012966C9112971396CD90DC90149730912E
:104660003F0470914004809142049091430400976C
:1046700009F46BC17F3F19F43F3F09F466C1E09034
:104680004104EE2009F4C0C020914404C816D906A4
:1046900028F0F601E81BF90BCF0104C08095909536
:1046A0008C0D9D1DFF24F394883C910578F0F12C2E
:1046B000207F09F0C6C07C2DD98AC88A89890E94CA
:1046C00061228FE394E00E94F821B1C0822F807FA5
:1046D00009F046C0751314C0341312C0611110C024
:1046E0002F702061209344040E94A1228FE394E064
:1046F0000E94F82180914404D80115968C932EC015
:10470000CD2819F15F3F11F44F3FF9F0F62E6111FA
:104710001CC080910D0420910E0436E0821709F42C
:104720005AC090E0389FF001399FF00D1124E15FED
:10473000FB4F7181571306C07081471303C072810C
:10474000711103C001968770E9CFF62E662309F434
:1047500018C180914404816080934404F12C11C1FC
:10476000751308C0341306C0611104C0809144045D
:10477000D801C3C04D875E878D859E856A8B0E9458
:1047800037226A898823E1F16623D1F1209144041C
:10479000822F82958F7090E0029774F080913F0491
:1047A0009091400498878F831986DB86CA862C8770
:1047B000CE0107960E94F82186E0F801AFE3B4E04D
:1047C00001900D928A95E1F70E94AF220E94A122EA
:1047D000FF24F394D6C04D875E878D859E850E9409
:1047E0006B27292F22952F7030E0223031050CF0F5
:1047F000BCC09F7009F0B6C0805E883008F4C1C0AC
:10480000C8010E94F821E4CFC816D90608F453C0A5
:10481000F601E81BF90BCF01883C910508F450C064
:10482000F12C7C2DD98AC88A89890E946122EFE304
:10483000F4E086E0DF011D928A95E9F70E94A1224B
:10484000A0C0751314C0341312C0611110C0809140
:104850004404F8018583C8010E94F82186E0EFE353
:10486000F4E0DF011D928A95E9F7FE2C8AC04D879E
:104870005E878D859E856A8B0E9437226A89882390
:1048800009F4BECF662309F4BBCF20914404822FE4
:1048900082958F7090E002970CF48ECF80913F0448
:1048A000909140049A8389831B82DD82CC822E837F
:1048B000CE0101967FCF809590958C0D9D1DACCF3C
:1048C000F62E662309F49CCF75132EC034132CC02A
:1048D0002091440420FD1FC0822F82958F70D9F053
:1048E000D80115962C9315978F3049F08F5F982F2C
:1048F0009295907F822F8F70892B15968C93C8018B
:104900000E94F82186E0F801AFE3B4E001900D9237
:104910008A95E1F793CF86E0F801AFE3B4E0019028
:104920000D928A95E1F72DC04D875E878D859E8516
:104930000E943722811140CF80914404816080938E
:104940004404C8010E94F8211CC0662309F458CF12
:104950004D875E878D859E850E943722882309F4C6
:104960004FCF2ACF811148CF0CC0243031050CF035
:1049700047CF9F7009F440CFF8019581907F09F0EF
:104980003BCF8F2D62960FB6F894DEBF0FBECDBF22
:10499000DF91CF911F910F91FF90EF90DF90CF901B
:1049A00008951F93CF93DF93CDB7DEB72C970FB643
:1049B000F894DEBF0FBECDBF4F83588769877A87D3
:1049C0008B879C87CE0107960E940A23882369F073
:1049D0008F8198852A853B85232BF1F19F3F09F034
:1049E00063C08F3F09F060C037C086E0FE01379694
:1049F000DE01119601900D928A95E1F76F8178851D
:104A0000EA85FB85309741F17F3F11F46F3F21F13B
:104A100020910E0430E0C9010196877099274091DA
:104A20000D0450E08417950709F447C069837A8321
:104A3000FD83EC8396E0929FD001939FB00D1124EB
:104A4000A15FBB4FFE01319601900D929A95E1F75F
:104A500080930E040E94802216E080910D049091B4
:104A60000E048917C1F1189FC0011124815F9B4F6B
:104A70000E940A23882379F1E0910D041E9FF00122
:104A80001124E15FFB4F40815181628173818481F8
:104A900095810E94702280910D0490E001968770AC
:104AA000992780930D04D9CF4F81588569857A85E0
:104AB0008B859C850E947022CFCF0E94332210925A
:104AC0000E0410920D04EFE3F4E086E0DF011D9286
:104AD0008A95E9F7C1CF2C960FB6F894DEBF0FBECA
:104AE000CDBFDF91CF911F910895EF92FF920F9369
:104AF0001F93CF93DF938C01892B09F46CC0F12CA9
:104B0000EE24E394E8012196F8018491843740F47F
:104B1000843008F051C0813081F0823019F15BC0DF
:104B2000853709F444C0A8F19CE7980F903708F046
:104B300052C08F770E94501F41C00E5F1F4FFE0171
:104B4000C49180E28C0F883048F4C7708E2D01C06C
:104B5000880FCA95EAF70E94512814C08C2F0E9432
:104B6000881E2DC00E5F1F4FFE01C49180E28C0F86
:104B7000883058F4C7708E2D01C0880FCA95EAF7A7
:104B80000E9457280E9478281AC08C2F0E94501F1C
:104B900016C00E5F1F4FFE01C491CC2381F08FE938
:104BA0009FE00197F1F700C00000C150F6CF0E5F03
:104BB0001F4FFE01F49003C00E94881E8E018F2DAE
:104BC000882309F49FCFEFE9FFE03197F1F700C0A8
:104BD00000008150F5CFDF91CF911F910F91FF9091
:104BE000EF90089508956093490470934A04809368
:104BF0004B0490934C040C941F220F931F9300912D
:104C0000490410914A0420914B0430914C04DC017A
:104C1000CB01802B912BA22BB32B80934904909333
:104C20004A04A0934B04B0934C041F910F910C9431
:104C30001F220F931F930091490410914A04209161
:104C40004B0430914C04DC01CB0180239123A2233F
:104C5000B3238093490490934A04A0934B04B093E8
:104C60004C041F910F910C941F220F931F930091DE
:104C7000490410914A0420914B0430914C04DC010A
:104C8000CB0180279127A227B327809349049093D3
:104C90004A04A0934B04B0934C041F910F910C94C1
:104CA0001F2210924504109246041092470410925D
:104CB00048040C941F2241E050E060E070E004C022
:104CC000440F551F661F771F8A95D2F740934504FE
:104CD0005093460460934704709348040C941F2239
:104CE00041E050E060E070E004C0440F551F661FD3
:104CF000771F8A95D2F78091450490914604A09140
:104D00004704B0914804482B592B6A2B7B2B4093C6
:104D100045045093460460934704709348040C94F0
:104D20001F2241E050E060E070E004C0440F551FD6
:104D3000661F771F8A95D2F74095509560957095BC
:104D40008091450490914604A0914704B091480495
:104D5000482359236A237B234093450450934604F8
:104D600060934704709348040C941F2241E050E084
:104D700060E070E004C0440F551F661F771F8A95DE
:104D8000D2F78091450490914604A0914704B091D8
:104D90004804482759276A277B27409345045093A6
:104DA000460460934704709348040C941F220F93A9
:104DB0001F930091450410914604209147043091BF
:104DC0004804DC01CB01802B912BA22BB32B8093C9
:104DD000450490934604A0934704B09348041F9160
:104DE0000F910C941F220F931F9300914504109173
:104DF00046042091470430914804DC01CB01802314
:104E00009123A223B3238093450490934604A09357
:104E10004704B09348041F910F910C941F220F93E5
:104E20001F9300914504109146042091470430914E
:104E30004804DC01CB0180279127A227B327809368
:104E4000450490934604A0934704B09348041F91EF
:104E50000F910C941F220895CF92DF92EF92FF9250
:104E60000F931F93CF93DF938C01C0904904D09090
:104E70004A04E0904B04F0904C04809145049091DA
:104E80004604A0914704B0914804C82AD92AEA2AC6
:104E9000FB2ACFE1D0E0D701C6010C2E04C0B695A5
:104EA000A795979587950A94D2F780FF06C0B80119
:104EB0008C2F0E94600C019721F4219760F780E00D
:104EC00001C08C2FDF91CF911F910F91FF90EF9038
:104ED000DF90CF900895CF93DF93EC010E942C27B1
:104EE000BE010E94600CDF91CF910895CB010E941A
:104EF0006B27089580914D04859585958595089536
:104F000080914D048770089598E0899F9001112445
:104F1000262B20934D040C94702620914D048095EF
:104F2000822380934D04982F977069F430E0482FC6
:104F3000552747FD50952417350729F08595859508
:104F400085950C949126089590914D04977081E079
:104F500009F480E0089590918502992321F09091C1
:104F60008602911109C02091870230918802F901CF
:104F700032969FEF40E01FC0982F96959695969594
:104F80009F3050F5E0918702F0918802E90FF11D02
:104F9000877021E030E0A90102C0440F551F8A95B7
:104FA000E2F7CA019181892B818308959F3F39F0EF
:104FB0004F5F4E3041F051915813F8CF0DC0511151
:104FC000F7CF942FF5CF9F3F39F0F901E90FF11D8D
:104FD00097FDFA958283089508959091850299230B
:104FE00021F090918602911109C0209187023091A1
:104FF0008802F9013296205F3F4F1FC0982F969587
:10500000969596959F30F0F4E0918702F091880292
:10501000E90FF11D877021E030E0A90102C0440FC3
:10502000551F8A95E2F7CA01809591818923818372
:1050300008953196E217F30729F090819813F9CF7C
:105040001082F7CF089581E090E0E0918702F0911F
:105050008802E80FF91F1082019680319105A9F7A7
:10506000089590916104892B80936104089580953F
:1050700090916104892380936104089510926104E2
:10508000089590916004892B809360040895809521
:1050900090916004892380936004089510926004C5
:1050A000089590915F04892B80935F040895809503
:1050B00090915F04892380935F04089510925F04A8
:1050C000089580934E04089510924E04089580919F
:1050D000870290918802FC0131969C01205F3F4F2E
:1050E00080E0919191118F5FE217F307D1F7089556
:1050F000E0918702F0918802809161048083E091C1
:105100008702F0918802908180916004892B8083CE
:10511000E0918702F0918802908180915F04892B51
:10512000808380914E04882361F0E0918702F091A2
:1051300088029081892B80830E94672881111092B8
:105140004E0480918702909188020C945D1D20E0AE
:10515000009739F0AC0141505109842395232F5F0A
:10516000F7CF822F089580918504843051F11092F9
:10517000630420E488E190E00FB6F894A89580934A
:1051800060000FBE2093600080E00E94180680E05F
:105190000E94910E83B7817F846083BF83B7816053
:1051A00083BF7894889583B78E7F83BF0FB6F894BA
:1051B000A8958091600088618093600010926000E3
:1051C0000FBE0895089580E00E9418060E94A70E61
:1051D0000E942A0F0E94E2280E94AF0F91E08111E5
:1051E00001C090E0892F08950E94332280E00E9440
:1051F00018060E94652E0E94511D0C94910E1F925C
:105200000F920FB60F9211248F939F93AF93BF937A
:1052100080916304811113C08091640490916504AE
:10522000A0916604B09167044196A11DB11D8093C1
:10523000640490936504A0936604B0936704BF91DF
:10524000AF919F918F910F900FBE0F901F90189567
:1052500082E084BD93E095BD9AEF97BD80936E0088
:1052600008952FB7F8948091640490916504A091FB
:105270006604B09167042FBF0895CF92DF92EF923A
:10528000FF920F931F932FB7F894409164045091AD
:10529000650460916604709167042FBF6A017B0109
:1052A000EE24FF248C0120E030E0C016D106E20697
:1052B000F30610F4415051099A01281B390BC9011A
:1052C0001F910F91FF90EF90DF90CF9008951F9264
:1052D0000F920FB60F9211248F939F93AF93BF93AA
:1052E0008091640490916504A0916604B091670474
:1052F0000196A11DB11D8093640490936504A09351
:105300006604B0936704BF91AF919F918F910F9006
:105310000FBE0F901F9018950E944E1AF8942FEF11
:1053200087EA91E6215080409040E1F700C00000FC
:1053300087E090EBDC0180938F0490939004A0931E
:105340009104B09392049CE088E10FB6F894A8957C
:10535000809360000FBE90936000FFCF0E94F02901
:10536000811102C00E94CC290E94FB298093620413
:105370000E94082A90E0909374048093730487FB42
:10538000882780F9809386020E94FF29682F70E0A9
:1053900080E090E00C94F3256DEE7EEF80E090E0ED
:1053A0000E94643360E082E090E00E94533360E04A
:1053B00083E090E00E94533360E084E090E00E943C
:1053C000533360E085E090E00E94533360E086E074
:1053D00090E00E9453336FEF87E090E00C945333DA
:1053E00080E090E00E944D3321E08D3E9E4F09F019
:1053F00020E0822F089582E090E00C94453383E012
:1054000090E00C944533682F83E090E00C94533384
:1054100084E090E00C944533682F84E090E00C9495
:10542000533386E090E00C944533682F86E090E09B
:105430000C94533387E090E00C944533682F87E059
:1054400090E00C94533380916A0480FF0BC060910C
:105450008C0285E0689FB00111247595679575955C
:1054600067952BC081FF09C060918C0285E0689F21
:10547000B00111247595679520C082FF07C0609127
:105480008C0285E0689FB001112417C090916B04D5
:105490009923D1F060918B02961788F720918C02A6
:1054A00085E0289F90011124929FA001939F500DA9
:1054B000112470E0CA010E942B336038710540F45A
:1054C0006115710539F002C065E070E0862F08951E
:1054D0008FE7089581E0089580916A0480FF08C0F5
:1054E00060918A0270E0759567957595679521C002
:1054F00081FF06C060918A0270E07595679519C0BA
:1055000082FF04C060918A0270E010C090916B0429
:105510009923C1F0609189029617A0F780918A02C1
:10552000899FC001112470E00E942B3360387105FF
:1055300028F46115710521F0862F08958FE70895ED
:1055400081E0089561E070E0F4CF803F21F40E9493
:10555000232A819504C0813F29F40E94232A809345
:105560006E040895823F21F40E94232A819504C08D
:10557000833F29F40E94232A80936D040895893F74
:1055800019F40E946C2A05C08A3F31F40E946C2AEB
:10559000819580936F0408958B3F21F40E946C2ABB
:1055A000819504C08C3F29F40E946C2A809370047A
:1055B0000895843F21F480916C04816017C0853F79
:1055C00021F480916C04826011C0863F21F48091A7
:1055D0006C0484600BC0873F21F480916C04886068
:1055E00005C0883F31F480916C04806180936C0425
:1055F00008958D3F21F480916A0481600BC08E3F35
:1056000021F480916A04826005C08F3F29F4809163
:105610006A04846080936A040895803F39F480911D
:105620006E0487FF6CC010926E0469C0813F29F43C
:1056300080916E041816BCF362C090916D04823F95
:1056400029F497FF5CC010926D0459C0833F19F490
:105650001916CCF354C0893F41F480916F04181699
:105660000CF04DC010926F044AC08A3F29F480911B
:105670006F0487FF44C0F6CF8B3F39F480917004EC
:1056800087FF3DC0109270043AC08C3F29F480918E
:1056900070041816BCF333C0843F21F480916C046D
:1056A0008E7F17C0853F21F480916C048D7F11C0DF
:1056B000863F21F480916C048B7F0BC0873F21F4DF
:1056C00080916C04877F05C0883F31F480916C0421
:1056D0008F7E80936C0413C08D3F21F480916A0407
:1056E0008E7F0BC08E3F21F480916A048D7F05C0B0
:1056F0008F3F29F480916A048B7F80936A048091A4
:105700006D0481110EC080916E0481110AC08091D8
:105710006F04811106C080917004811102C0109243
:105720006B0408958CE694E00E94681D0E94312964
:10573000909369048093680408951F93CF93DF9337
:1057400080916804909169040E943D29AC01909178
:105750006B04992321F020918D0230E006C0209146
:105760008E028AE0289F900111244217530708F403
:1057700086C080916D04C0916E04D0916F04109129
:105780007004811107C0C11176C0D11174C011110C
:1057900072C075C09F3F19F09F5F90936B041816FD
:1057A00024F40E94232A80936D0480916D0487FF66
:1057B00005C00E94232A819580936D041C1624F451
:1057C0000E94232A80936E0480916E0487FF05C097
:1057D0000E94232A819580936E0460916D04662354
:1057E00039F1C0916E04CC2319F1772767FD7095CC
:1057F000872F972F0E941C3023E333E343E35FE3BB
:105800000E9433310E94E42F60936D046C2F772740
:1058100067FD7095872F972F0E941C3023E333E399
:1058200043E35FE30E9433310E94E42F60936E04F0
:105830001D1624F40E946C2A80936F0480916F04DB
:1058400087FF05C00E946C2A819580936F04111612
:1058500024F40E946C2A809370048091700487FF66
:1058600005C00E946C2A819580937004DF91CF91CE
:105870001F910C94922B9F3F09F08ECF96CFDF9112
:10588000CF911F910895ECE6F4E085E0DF011D92D1
:105890008A95E9F710926B0410926A040895833098
:1058A00081F128F4813059F08230D1F008958530AB
:1058B00009F449C0B8F1863009F456C008958091C2
:1058C0008E02262F30E0280F311D2F3F310524F4A2
:1058D000680F60938E0208958FEF80938E02089573
:1058E00080918D02262F30E0280F311D2F3F31058A
:1058F00024F4680F60938D0208958FEF80938D02DA
:10590000089580918C02262F30E0280F311D2F3F03
:10591000310524F4680F60938C0208958FEF809313
:105920008C02089580918B02262F30E0280F311DC4
:105930002F3F310524F4680F60938B0208958FEF99
:1059400080938B02089580918A02262F30E0280FE1
:10595000311D2F3F310524F4680F60938A020895AA
:105960008FEF80938A02089580918902262F30E07C
:10597000280F311D2F3F310524F4680F60938902F1
:1059800008958FEF809389020895833011F128F4F0
:10599000813049F0823091F00895853081F120F115
:1059A0008630C1F1089580918E02681720F4861B1D
:1059B00080938E02089510928E02089580918D0238
:1059C000681720F4861B80938D02089510928D0233
:1059D000089580918C02681720F4861B80938C02B6
:1059E000089510928C02089580918B02681720F41C
:1059F000861B80938B02089510928B0208958091EC
:105A00008A02681720F4861B80938A0208951092F8
:105A10008A02089580918902681720F4861B80937A
:105A2000890208951092890208950F931F93873277
:105A300008F048C08E3108F08DC0803109F477C07D
:105A400008F5873009F461C068F4863009F09DC01C
:105A500080916204817F8E7F8093620481E08093D5
:105A6000720494C08B3009F489C08E3009F08DC067
:105A70008091620482FB222720F991E0922790FB1B
:105A800082F95EC0863109F479C060F4813109F091
:105A90007CC00E9433229091860281E08927809306
:105AA00086026CC0893109F469C08B3109F06DC080
:105AB0008091620481FB222720F991E0922790FBDC
:105AC00081F93EC0883309F459C050F4893209F491
:105AD00057C0853309F454C0873209F451C055C00A
:105AE000833409F44DC028F48A3308F44EC0895336
:105AF00032C0883409F049C00E9433220E94DF0F6F
:105B00000E9478080E948C2939C090916204892FE4
:105B10008095817080FB90F929F096609860909351
:105B2000620434C0997F977F9093620427C080916C
:105B3000620483FB222720F991E0922790FB83F9EE
:105B4000809362049923D1F08091620481608093F4
:105B5000620414C08D5141E050E060E070E08A01C1
:105B60009B0104C0000F111F221F331F8A95D2F71B
:105B7000C901B8010E94F3250E94332281E006C0CA
:105B800061E070E080E090E0F5CF80E01F910F9140
:105B9000089580E0089580E00895CF93C82F809104
:105BA0007204813069F018F08230C9F184C0E0914C
:105BB0008702F09188028081823209F07EC007C09E
:105BC000E0918702F09188028081823261F48C2F0B
:105BD0000E94C92D811104C08C2F0E94152D1DC05B
:105BE00081E090E01AC08C2F0E94CB2D811114C04F
:105BF000C43179F048F4CB3079F0C03109F061C09C
:105C000082E08093720408C0C93219F0C83321F0D1
:105C100058C01092720455C081E0817054C0C932DE
:105C200091F120F5C43179F1B0F4C73009F047C0E3
:105C30008EE180938E0282E380938D028AE08093CE
:105C40008C0284E180938B0288E080938A0288E250
:105C50008093890234C0CE51C63088F5EC2FF0E035
:105C6000EA5DFC4F80818093710429C0CE34E9F055
:105C700020F4CB3421F56AE013C0C13579F0C23588
:105C8000F1F461E00DC080917104882319F0109245
:105C9000710415C081E08093720415C061E006C0F4
:105CA000809171040E944F2C0AC06AE080917104B7
:105CB0000E94C52C04C01092720480E004C081E0F0
:105CC00002C080E0AACFCF9108950E94F0298111EF
:105CD00002C00E94CC290E94112A80938E0480FF6A
:105CE00002C0869501C080E00C94180680918E0455
:105CF000982F9695292F30E0233031054CF49F5F83
:105D0000990F8170892B816080938E040E94152ADF
:105D100080918E0486950C94180680918E04982F9D
:105D2000969591F09158990F8170892B80938E04EC
:105D30008E7F91E009F490E080918E0490FB80F9D1
:105D400080938E040E94152A80918E0486950C946F
:105D5000180680918E04982F909590FB80F980937F
:105D60008E040E94152A80918E0480FF02C08695C1
:105D700001C080E00C94180690918E04892F8695BE
:105D80008F5F8F779170843028F4880F892B8093F0
:105D90008E0402C090938E0480918E048E7F91E0D9
:105DA00009F490E080918E0490FB80F980938E043A
:105DB0000E94152A80918E0486950C9418062091D5
:105DC0008E04922F96958927982F990F822F817094
:105DD000892B80938E048E7F91E009F490E080916E
:105DE0008E0490FB80F980938E040E94152A809186
:105DF0008E0486950C94180680918E0486950895DD
